{
  "_format": "hh-sol-artifact-1",
  "contractName": "ETC",
  "sourceName": "contracts/ETC.sol",
  "abi": [
    {
      "inputs": [
        {
          "internalType": "address payable",
          "name": "_receiverWallet",
          "type": "address"
        }
      ],
      "stateMutability": "nonpayable",
      "type": "constructor"
    },
    {
      "anonymous": false,
      "inputs": [
        {
          "indexed": true,
          "internalType": "address",
          "name": "owner",
          "type": "address"
        },
        {
          "indexed": true,
          "internalType": "address",
          "name": "approved",
          "type": "address"
        },
        {
          "indexed": true,
          "internalType": "uint256",
          "name": "tokenId",
          "type": "uint256"
        }
      ],
      "name": "Approval",
      "type": "event"
    },
    {
      "anonymous": false,
      "inputs": [
        {
          "indexed": true,
          "internalType": "address",
          "name": "owner",
          "type": "address"
        },
        {
          "indexed": true,
          "internalType": "address",
          "name": "operator",
          "type": "address"
        },
        {
          "indexed": false,
          "internalType": "bool",
          "name": "approved",
          "type": "bool"
        }
      ],
      "name": "ApprovalForAll",
      "type": "event"
    },
    {
      "anonymous": false,
      "inputs": [
        {
          "indexed": false,
          "internalType": "address",
          "name": "_to",
          "type": "address"
        },
        {
          "indexed": false,
          "internalType": "uint256",
          "name": "_amount",
          "type": "uint256"
        }
      ],
      "name": "BatchMintFinished",
      "type": "event"
    },
    {
      "anonymous": false,
      "inputs": [
        {
          "indexed": true,
          "internalType": "address",
          "name": "previousOwner",
          "type": "address"
        },
        {
          "indexed": true,
          "internalType": "address",
          "name": "newOwner",
          "type": "address"
        }
      ],
      "name": "OwnershipTransferred",
      "type": "event"
    },
    {
      "anonymous": false,
      "inputs": [
        {
          "indexed": false,
          "internalType": "address",
          "name": "account",
          "type": "address"
        }
      ],
      "name": "Paused",
      "type": "event"
    },
    {
      "anonymous": false,
      "inputs": [
        {
          "indexed": false,
          "internalType": "address",
          "name": "_to",
          "type": "address"
        },
        {
          "indexed": false,
          "internalType": "uint256",
          "name": "_amount",
          "type": "uint256"
        }
      ],
      "name": "PresaleNFTsFinished",
      "type": "event"
    },
    {
      "anonymous": false,
      "inputs": [
        {
          "indexed": true,
          "internalType": "address",
          "name": "from",
          "type": "address"
        },
        {
          "indexed": true,
          "internalType": "address",
          "name": "to",
          "type": "address"
        },
        {
          "indexed": true,
          "internalType": "uint256",
          "name": "tokenId",
          "type": "uint256"
        }
      ],
      "name": "Transfer",
      "type": "event"
    },
    {
      "anonymous": false,
      "inputs": [
        {
          "indexed": false,
          "internalType": "address",
          "name": "account",
          "type": "address"
        }
      ],
      "name": "Unpaused",
      "type": "event"
    },
    {
      "inputs": [
        {
          "internalType": "address",
          "name": "_to",
          "type": "address"
        },
        {
          "internalType": "uint256",
          "name": "_amount",
          "type": "uint256"
        }
      ],
      "name": "BatchMint",
      "outputs": [],
      "stateMutability": "nonpayable",
      "type": "function"
    },
    {
      "inputs": [
        {
          "internalType": "address",
          "name": "_to",
          "type": "address"
        },
        {
          "internalType": "uint256",
          "name": "_amount",
          "type": "uint256"
        }
      ],
      "name": "PresaleNFTs",
      "outputs": [],
      "stateMutability": "payable",
      "type": "function"
    },
    {
      "inputs": [
        {
          "internalType": "address",
          "name": "to",
          "type": "address"
        },
        {
          "internalType": "uint256",
          "name": "tokenId",
          "type": "uint256"
        }
      ],
      "name": "approve",
      "outputs": [],
      "stateMutability": "nonpayable",
      "type": "function"
    },
    {
      "inputs": [
        {
          "internalType": "address",
          "name": "owner",
          "type": "address"
        }
      ],
      "name": "balanceOf",
      "outputs": [
        {
          "internalType": "uint256",
          "name": "",
          "type": "uint256"
        }
      ],
      "stateMutability": "view",
      "type": "function"
    },
    {
      "inputs": [],
      "name": "baseExtension",
      "outputs": [
        {
          "internalType": "string",
          "name": "",
          "type": "string"
        }
      ],
      "stateMutability": "view",
      "type": "function"
    },
    {
      "inputs": [],
      "name": "getAllTokensList",
      "outputs": [
        {
          "internalType": "uint256[]",
          "name": "",
          "type": "uint256[]"
        }
      ],
      "stateMutability": "view",
      "type": "function"
    },
    {
      "inputs": [
        {
          "internalType": "uint256",
          "name": "tokenId",
          "type": "uint256"
        }
      ],
      "name": "getApproved",
      "outputs": [
        {
          "internalType": "address",
          "name": "",
          "type": "address"
        }
      ],
      "stateMutability": "view",
      "type": "function"
    },
    {
      "inputs": [],
      "name": "getLastTokenId",
      "outputs": [
        {
          "internalType": "uint256",
          "name": "",
          "type": "uint256"
        }
      ],
      "stateMutability": "view",
      "type": "function"
    },
    {
      "inputs": [],
      "name": "getPricePerNFT",
      "outputs": [
        {
          "internalType": "uint256",
          "name": "",
          "type": "uint256"
        }
      ],
      "stateMutability": "view",
      "type": "function"
    },
    {
      "inputs": [],
      "name": "getReceiverWallet",
      "outputs": [
        {
          "internalType": "address",
          "name": "",
          "type": "address"
        }
      ],
      "stateMutability": "view",
      "type": "function"
    },
    {
      "inputs": [
        {
          "internalType": "address",
          "name": "_owner",
          "type": "address"
        }
      ],
      "name": "getTokensListOwnedByUser",
      "outputs": [
        {
          "internalType": "uint256[]",
          "name": "",
          "type": "uint256[]"
        }
      ],
      "stateMutability": "view",
      "type": "function"
    },
    {
      "inputs": [
        {
          "internalType": "address",
          "name": "owner",
          "type": "address"
        },
        {
          "internalType": "address",
          "name": "operator",
          "type": "address"
        }
      ],
      "name": "isApprovedForAll",
      "outputs": [
        {
          "internalType": "bool",
          "name": "",
          "type": "bool"
        }
      ],
      "stateMutability": "view",
      "type": "function"
    },
    {
      "inputs": [],
      "name": "name",
      "outputs": [
        {
          "internalType": "string",
          "name": "",
          "type": "string"
        }
      ],
      "stateMutability": "view",
      "type": "function"
    },
    {
      "inputs": [],
      "name": "nextTokenId",
      "outputs": [
        {
          "internalType": "uint256",
          "name": "",
          "type": "uint256"
        }
      ],
      "stateMutability": "view",
      "type": "function"
    },
    {
      "inputs": [],
      "name": "owner",
      "outputs": [
        {
          "internalType": "address",
          "name": "",
          "type": "address"
        }
      ],
      "stateMutability": "view",
      "type": "function"
    },
    {
      "inputs": [
        {
          "internalType": "uint256",
          "name": "tokenId",
          "type": "uint256"
        }
      ],
      "name": "ownerOf",
      "outputs": [
        {
          "internalType": "address",
          "name": "",
          "type": "address"
        }
      ],
      "stateMutability": "view",
      "type": "function"
    },
    {
      "inputs": [],
      "name": "pause",
      "outputs": [],
      "stateMutability": "nonpayable",
      "type": "function"
    },
    {
      "inputs": [],
      "name": "paused",
      "outputs": [
        {
          "internalType": "bool",
          "name": "",
          "type": "bool"
        }
      ],
      "stateMutability": "view",
      "type": "function"
    },
    {
      "inputs": [],
      "name": "renounceOwnership",
      "outputs": [],
      "stateMutability": "nonpayable",
      "type": "function"
    },
    {
      "inputs": [],
      "name": "revealed",
      "outputs": [
        {
          "internalType": "bool",
          "name": "",
          "type": "bool"
        }
      ],
      "stateMutability": "view",
      "type": "function"
    },
    {
      "inputs": [
        {
          "internalType": "address",
          "name": "from",
          "type": "address"
        },
        {
          "internalType": "address",
          "name": "to",
          "type": "address"
        },
        {
          "internalType": "uint256",
          "name": "tokenId",
          "type": "uint256"
        }
      ],
      "name": "safeTransferFrom",
      "outputs": [],
      "stateMutability": "nonpayable",
      "type": "function"
    },
    {
      "inputs": [
        {
          "internalType": "address",
          "name": "from",
          "type": "address"
        },
        {
          "internalType": "address",
          "name": "to",
          "type": "address"
        },
        {
          "internalType": "uint256",
          "name": "tokenId",
          "type": "uint256"
        },
        {
          "internalType": "bytes",
          "name": "_data",
          "type": "bytes"
        }
      ],
      "name": "safeTransferFrom",
      "outputs": [],
      "stateMutability": "nonpayable",
      "type": "function"
    },
    {
      "inputs": [
        {
          "internalType": "address",
          "name": "operator",
          "type": "address"
        },
        {
          "internalType": "bool",
          "name": "approved",
          "type": "bool"
        }
      ],
      "name": "setApprovalForAll",
      "outputs": [],
      "stateMutability": "nonpayable",
      "type": "function"
    },
    {
      "inputs": [
        {
          "internalType": "string",
          "name": "baseURI_",
          "type": "string"
        }
      ],
      "name": "setBaseURI",
      "outputs": [],
      "stateMutability": "nonpayable",
      "type": "function"
    },
    {
      "inputs": [
        {
          "internalType": "uint256",
          "name": "_newPrice",
          "type": "uint256"
        }
      ],
      "name": "setPricePerNFT",
      "outputs": [],
      "stateMutability": "nonpayable",
      "type": "function"
    },
    {
      "inputs": [
        {
          "internalType": "address payable",
          "name": "_receiverWallet",
          "type": "address"
        }
      ],
      "name": "setReceiverWallet",
      "outputs": [],
      "stateMutability": "nonpayable",
      "type": "function"
    },
    {
      "inputs": [
        {
          "internalType": "bytes4",
          "name": "interfaceId",
          "type": "bytes4"
        }
      ],
      "name": "supportsInterface",
      "outputs": [
        {
          "internalType": "bool",
          "name": "",
          "type": "bool"
        }
      ],
      "stateMutability": "view",
      "type": "function"
    },
    {
      "inputs": [],
      "name": "symbol",
      "outputs": [
        {
          "internalType": "string",
          "name": "",
          "type": "string"
        }
      ],
      "stateMutability": "view",
      "type": "function"
    },
    {
      "inputs": [
        {
          "internalType": "uint256",
          "name": "index",
          "type": "uint256"
        }
      ],
      "name": "tokenByIndex",
      "outputs": [
        {
          "internalType": "uint256",
          "name": "",
          "type": "uint256"
        }
      ],
      "stateMutability": "view",
      "type": "function"
    },
    {
      "inputs": [
        {
          "internalType": "address",
          "name": "owner",
          "type": "address"
        },
        {
          "internalType": "uint256",
          "name": "index",
          "type": "uint256"
        }
      ],
      "name": "tokenOfOwnerByIndex",
      "outputs": [
        {
          "internalType": "uint256",
          "name": "",
          "type": "uint256"
        }
      ],
      "stateMutability": "view",
      "type": "function"
    },
    {
      "inputs": [
        {
          "internalType": "uint256",
          "name": "tokenId",
          "type": "uint256"
        }
      ],
      "name": "tokenURI",
      "outputs": [
        {
          "internalType": "string",
          "name": "",
          "type": "string"
        }
      ],
      "stateMutability": "view",
      "type": "function"
    },
    {
      "inputs": [],
      "name": "totalSupply",
      "outputs": [
        {
          "internalType": "uint256",
          "name": "",
          "type": "uint256"
        }
      ],
      "stateMutability": "view",
      "type": "function"
    },
    {
      "inputs": [
        {
          "internalType": "address",
          "name": "from",
          "type": "address"
        },
        {
          "internalType": "address",
          "name": "to",
          "type": "address"
        },
        {
          "internalType": "uint256",
          "name": "tokenId",
          "type": "uint256"
        }
      ],
      "name": "transferFrom",
      "outputs": [],
      "stateMutability": "nonpayable",
      "type": "function"
    },
    {
      "inputs": [
        {
          "internalType": "address",
          "name": "newOwner",
          "type": "address"
        }
      ],
      "name": "transferOwnership",
      "outputs": [],
      "stateMutability": "nonpayable",
      "type": "function"
    },
    {
      "inputs": [],
      "name": "unpause",
      "outputs": [],
      "stateMutability": "nonpayable",
      "type": "function"
    }
  ],
  "bytecode": "0x60c06040526005608081905264173539b7b760d91b60a09081526200002891600e9190620001c8565b50600f805460ff1916905566d529ae9e8600006010556127106012553480156200005157600080fd5b5060405162002be638038062002be683398101604081905262000074916200026e565b604080518082018252601c81527f4573636f6261727320547265617375726520436f6c6c656374696f6e0000000060208083019182528351808501909452600384526245544360e81b908401528151919291620000d491600091620001c8565b508051620000ea906001906020840190620001c8565b50505062000107620001016200017260201b60201c565b62000176565b600b805460ff60a01b191690556001600160a01b038116620001465760405162461bcd60e51b81526004016200013d906200029e565b60405180910390fd5b600f80546001600160a01b0390921661010002610100600160a81b031990921691909117905562000312565b3390565b600b80546001600160a01b038381166001600160a01b0319831681179093556040519116919082907f8be0079c531659141344cd1fd0a4f28419497f9722a3daafe3b4186f6b6457e090600090a35050565b828054620001d690620002d5565b90600052602060002090601f016020900481019282620001fa576000855562000245565b82601f106200021557805160ff191683800117855562000245565b8280016001018555821562000245579182015b828111156200024557825182559160200191906001019062000228565b506200025392915062000257565b5090565b5b8082111562000253576000815560010162000258565b60006020828403121562000280578081fd5b81516001600160a01b038116811462000297578182fd5b9392505050565b60208082526013908201527f7a65726f2077616c6c6574206164647265737300000000000000000000000000604082015260600190565b600281046001821680620002ea57607f821691505b602082108114156200030c57634e487b7160e01b600052602260045260246000fd5b50919050565b6128c480620003226000396000f3fe6080604052600436106101945760003560e01c806301ffc9a71461019957806306fdde03146101cf578063081812fc146101f1578063095ea7b31461021e5780630e46e94d1461024057806318160ddd1461025357806322912cb21461027557806323b872dd1461029557806325b9fd2e146102b55780632f745c59146102ca5780633f4ba83a146102ea57806342842e0e146102ff5780634b6dcabd1461031f5780634cd0943b1461033f5780634f6ccce71461036c578063518302271461038c57806355f804b3146103a15780635c975abb146103c15780636352211e146103d657806370a08231146103f6578063715018a61461041657806375794a3c1461042b57806383c4c00d146104405780638456cb59146104555780638da5cb5b1461046a57806395d89b411461047f578063988bc5c214610494578063a22cb465146104a9578063b88d4fde146104c9578063c6682862146104e9578063c733b171146104fe578063c87b56dd14610513578063cc9f019414610533578063e985e9c514610553578063f2fde38b14610573575b600080fd5b3480156101a557600080fd5b506101b96101b4366004611e58565b610593565b6040516101c69190612089565b60405180910390f35b3480156101db57600080fd5b506101e46105a6565b6040516101c69190612094565b3480156101fd57600080fd5b5061021161020c366004611ed5565b610638565b6040516101c69190611fdb565b34801561022a57600080fd5b5061023e610239366004611e2d565b610684565b005b61023e61024e366004611e2d565b61071c565b34801561025f57600080fd5b506102686108d5565b6040516101c691906126f4565b34801561028157600080fd5b5061023e610290366004611cec565b6108db565b3480156102a157600080fd5b5061023e6102b0366004611d40565b610942565b3480156102c157600080fd5b5061021161097a565b3480156102d657600080fd5b506102686102e5366004611e2d565b61098e565b3480156102f657600080fd5b5061023e6109e0565b34801561030b57600080fd5b5061023e61031a366004611d40565b610a29565b34801561032b57600080fd5b5061023e61033a366004611e2d565b610a44565b34801561034b57600080fd5b5061035f61035a366004611cec565b610b5c565b6040516101c69190612045565b34801561037857600080fd5b50610268610387366004611ed5565b610c1b565b34801561039857600080fd5b506101b9610c76565b3480156103ad57600080fd5b5061023e6103bc366004611e90565b610c7f565b3480156103cd57600080fd5b506101b9610cd5565b3480156103e257600080fd5b506102116103f1366004611ed5565b610ce5565b34801561040257600080fd5b50610268610411366004611cec565b610d1a565b34801561042257600080fd5b5061023e610d5e565b34801561043757600080fd5b50610268610da7565b34801561044c57600080fd5b50610268610dbd565b34801561046157600080fd5b5061023e610dc3565b34801561047657600080fd5b50610211610e0a565b34801561048b57600080fd5b506101e4610e19565b3480156104a057600080fd5b5061035f610e28565b3480156104b557600080fd5b5061023e6104c4366004611dfc565b610ee3565b3480156104d557600080fd5b5061023e6104e4366004611d80565b610fb1565b3480156104f557600080fd5b506101e4610ff0565b34801561050a57600080fd5b5061026861107e565b34801561051f57600080fd5b506101e461052e366004611ed5565b611084565b34801561053f57600080fd5b5061023e61054e366004611ed5565b61110a565b34801561055f57600080fd5b506101b961056e366004611d08565b61114e565b34801561057f57600080fd5b5061023e61058e366004611cec565b61117c565b600061059e826111ed565b90505b919050565b6060600080546105b590612797565b80601f01602080910402602001604051908101604052809291908181526020018280546105e190612797565b801561062e5780601f106106035761010080835404028352916020019161062e565b820191906000526020600020905b81548152906001019060200180831161061157829003601f168201915b5050505050905090565b600061064382611212565b6106685760405162461bcd60e51b815260040161065f906124e6565b60405180910390fd5b506000908152600460205260409020546001600160a01b031690565b600061068f82610ce5565b9050806001600160a01b0316836001600160a01b031614156106c35760405162461bcd60e51b815260040161065f906125e0565b806001600160a01b03166106d561122f565b6001600160a01b031614806106f157506106f18161056e61122f565b61070d5760405162461bcd60e51b815260040161065f90612375565b6107178383611233565b505050565b610724610cd5565b156107415760405162461bcd60e51b815260040161065f9061234b565b600081116107615760405162461bcd60e51b815260040161065f90612621565b601254816011546107729190612709565b11156107905760405162461bcd60e51b815260040161065f906120a7565b600a8111156107b15760405162461bcd60e51b815260040161065f906125b0565b6001600160a01b0382166107d75760405162461bcd60e51b815260040161065f906122d9565b6000816010546107e79190612735565b9050803410156108095760405162461bcd60e51b815260040161065f9061222f565b600f546040516001600160a01b0361010090920491909116903480156108fc02916000818181858888f19350505050158015610849573d6000803e3d6000fd5b5060005b8281101561089657600061085f610da7565b905061087b8582604051806020016040528060008152506112a1565b6108836112d4565b508061088e816127d2565b91505061084d565b507f534ce981a3e4ab11c543920fe3818d892a4e1fcd00d44859c2d9677d18ea17a083836040516108c892919061202c565b60405180910390a1505050565b60085490565b6108e361122f565b6001600160a01b03166108f4610e0a565b6001600160a01b03161461091a5760405162461bcd60e51b815260040161065f90612532565b600f80546001600160a01b0390921661010002610100600160a81b0319909216919091179055565b61095361094d61122f565b826112eb565b61096f5760405162461bcd60e51b815260040161065f90612657565b610717838383611370565b600f5461010090046001600160a01b031690565b600061099983610d1a565b82106109b75760405162461bcd60e51b815260040161065f90612116565b506001600160a01b03919091166000908152600660209081526040808320938352929052205490565b6109e861122f565b6001600160a01b03166109f9610e0a565b6001600160a01b031614610a1f5760405162461bcd60e51b815260040161065f90612532565b610a2761148b565b565b61071783838360405180602001604052806000815250610fb1565b610a4c61122f565b6001600160a01b0316610a5d610e0a565b6001600160a01b031614610a835760405162461bcd60e51b815260040161065f90612532565b60125481601154610a949190612709565b1115610ab25760405162461bcd60e51b815260040161065f906120a7565b60008111610ad25760405162461bcd60e51b815260040161065f90612621565b60005b81811015610b1e576000610ae7610da7565b9050610b038482604051806020016040528060008152506112a1565b610b0b6112d4565b5080610b16816127d2565b915050610ad5565b507fcb18d05a153858255021777f6affd00f88a682d88708c2e5d6ca4421f71b2a208282604051610b5092919061202c565b60405180910390a15050565b60606000610b6983610d1a565b6001600160401b03811115610b8e57634e487b7160e01b600052604160045260246000fd5b604051908082528060200260200182016040528015610bb7578160200160208202803683370190505b50905060005b610bc684610d1a565b811015610c1457610bd7848261098e565b828281518110610bf757634e487b7160e01b600052603260045260246000fd5b602090810291909101015280610c0c816127d2565b915050610bbd565b5092915050565b6000610c256108d5565b8210610c435760405162461bcd60e51b815260040161065f906126a8565b60088281548110610c6457634e487b7160e01b600052603260045260246000fd5b90600052602060002001549050919050565b600f5460ff1681565b610c8761122f565b6001600160a01b0316610c98610e0a565b6001600160a01b031614610cbe5760405162461bcd60e51b815260040161065f90612532565b8051610cd190600c906020840190611be4565b5050565b600b54600160a01b900460ff1690565b6000818152600260205260408120546001600160a01b03168061059e5760405162461bcd60e51b815260040161065f90612417565b60006001600160a01b038216610d425760405162461bcd60e51b815260040161065f906123cd565b506001600160a01b031660009081526003602052604090205490565b610d6661122f565b6001600160a01b0316610d77610e0a565b6001600160a01b031614610d9d5760405162461bcd60e51b815260040161065f90612532565b610a2760006114fc565b60006011546001610db89190612709565b905090565b60115490565b610dcb61122f565b6001600160a01b0316610ddc610e0a565b6001600160a01b031614610e025760405162461bcd60e51b815260040161065f90612532565b610a2761154e565b600b546001600160a01b031690565b6060600180546105b590612797565b60606000610e346108d5565b6001600160401b03811115610e5957634e487b7160e01b600052604160045260246000fd5b604051908082528060200260200182016040528015610e82578160200160208202803683370190505b50905060005b610e906108d5565b811015610edd57610ea081610c1b565b828281518110610ec057634e487b7160e01b600052603260045260246000fd5b602090810291909101015280610ed5816127d2565b915050610e88565b50905090565b610eeb61122f565b6001600160a01b0316826001600160a01b03161415610f1c5760405162461bcd60e51b815260040161065f906122a6565b8060056000610f2961122f565b6001600160a01b03908116825260208083019390935260409182016000908120918716808252919093529120805460ff191692151592909217909155610f6d61122f565b6001600160a01b03167f17307eab39ab6107e8899845ad3d59bd9653f200f220920489ca2b5937696c3183604051610fa59190612089565b60405180910390a35050565b610fc2610fbc61122f565b836112eb565b610fde5760405162461bcd60e51b815260040161065f90612657565b610fea848484846115af565b50505050565b600e8054610ffd90612797565b80601f016020809104026020016040519081016040528092919081815260200182805461102990612797565b80156110765780601f1061104b57610100808354040283529160200191611076565b820191906000526020600020905b81548152906001019060200180831161105957829003601f168201915b505050505081565b60105490565b606061108f82611212565b6110ab5760405162461bcd60e51b815260040161065f90612495565b60606110b56115e2565b905060008151116110d55760405180602001604052806000815250611103565b806110df846115f1565b600e6040516020016110f393929190611f19565b6040516020818303038152906040525b9392505050565b61111261122f565b6001600160a01b0316611123610e0a565b6001600160a01b0316146111495760405162461bcd60e51b815260040161065f90612532565b601055565b6001600160a01b03918216600090815260056020908152604080832093909416825291909152205460ff1690565b61118461122f565b6001600160a01b0316611195610e0a565b6001600160a01b0316146111bb5760405162461bcd60e51b815260040161065f90612532565b6001600160a01b0381166111e15760405162461bcd60e51b815260040161065f906121b3565b6111ea816114fc565b50565b60006001600160e01b0319821663780e9d6360e01b148061059e575061059e8261170b565b6000908152600260205260409020546001600160a01b0316151590565b3390565b600081815260046020526040902080546001600160a01b0319166001600160a01b038416908117909155819061126882610ce5565b6001600160a01b03167f8c5be1e5ebec7d5bd14f71427d1e84f3dd0314c0f7b2291e5b200ac8c7c3b92560405160405180910390a45050565b6112ab838361174b565b6112b86000848484611818565b6107175760405162461bcd60e51b815260040161065f90612161565b601180549060006112e4836127d2565b9190505550565b60006112f682611212565b6113125760405162461bcd60e51b815260040161065f906122ff565b600061131d83610ce5565b9050806001600160a01b0316846001600160a01b031614806113585750836001600160a01b031661134d84610638565b6001600160a01b0316145b806113685750611368818561114e565b949350505050565b826001600160a01b031661138382610ce5565b6001600160a01b0316146113a95760405162461bcd60e51b815260040161065f90612567565b6001600160a01b0382166113cf5760405162461bcd60e51b815260040161065f90612262565b6113da838383611933565b6113e5600082611233565b6001600160a01b038316600090815260036020526040812080546001929061140e908490612754565b90915550506001600160a01b038216600090815260036020526040812080546001929061143c908490612709565b909155505060008181526002602052604080822080546001600160a01b0319166001600160a01b03868116918217909255915184939187169160008051602061286f83398151915291a4505050565b611493610cd5565b6114af5760405162461bcd60e51b815260040161065f906120e8565b600b805460ff60a01b191690557f5db9ee0a495bf2e6ff9c91a7834c1ba4fdd244a5e8aa4e537bd38aeae4b073aa6114e561122f565b6040516114f29190611fdb565b60405180910390a1565b600b80546001600160a01b038381166001600160a01b0319831681179093556040519116919082907f8be0079c531659141344cd1fd0a4f28419497f9722a3daafe3b4186f6b6457e090600090a35050565b611556610cd5565b156115735760405162461bcd60e51b815260040161065f9061234b565b600b805460ff60a01b1916600160a01b1790557f62e78cea01bee320cd4e420270b5ea74000d11b0c9f74754ebdbfc544b05a2586114e561122f565b6115ba848484611370565b6115c684848484611818565b610fea5760405162461bcd60e51b815260040161065f90612161565b6060600c80546105b590612797565b60608161161657506040805180820190915260018152600360fc1b60208201526105a1565b8160005b8115611640578061162a816127d2565b91506116399050600a83612721565b915061161a565b6000816001600160401b0381111561166857634e487b7160e01b600052604160045260246000fd5b6040519080825280601f01601f191660200182016040528015611692576020820181803683370190505b5090505b8415611368576116a7600183612754565b91506116b4600a866127ed565b6116bf906030612709565b60f81b8183815181106116e257634e487b7160e01b600052603260045260246000fd5b60200101906001600160f81b031916908160001a905350611704600a86612721565b9450611696565b60006001600160e01b031982166380ac58cd60e01b148061173c57506001600160e01b03198216635b5e139f60e01b145b8061059e575061059e8261193e565b6001600160a01b0382166117715760405162461bcd60e51b815260040161065f90612460565b61177a81611212565b156117975760405162461bcd60e51b815260040161065f906121f9565b6117a360008383611933565b6001600160a01b03821660009081526003602052604081208054600192906117cc908490612709565b909155505060008181526002602052604080822080546001600160a01b0319166001600160a01b038616908117909155905183929060008051602061286f833981519152908290a45050565b600061182c846001600160a01b0316611957565b1561192857836001600160a01b031663150b7a0261184861122f565b8786866040518563ffffffff1660e01b815260040161186a9493929190611fef565b602060405180830381600087803b15801561188457600080fd5b505af19250505080156118b4575060408051601f3d908101601f191682019092526118b191810190611e74565b60015b61190e573d8080156118e2576040519150601f19603f3d011682016040523d82523d6000602084013e6118e7565b606091505b5080516119065760405162461bcd60e51b815260040161065f90612161565b805181602001fd5b6001600160e01b031916630a85bd0160e11b149050611368565b506001949350505050565b61071783838361195d565b6001600160e01b031981166301ffc9a760e01b14919050565b3b151590565b611968838383610717565b6001600160a01b0383166119845761197f816119e6565b6119a7565b816001600160a01b0316836001600160a01b0316146119a7576119a78382611a2a565b6001600160a01b0382166119c3576119be81611ac7565b610717565b826001600160a01b0316826001600160a01b031614610717576107178282611ba0565b600880546000838152600960205260408120829055600182018355919091527ff3f7a9fe364faab93b216da50a3214154f22a0a2b415b23a84c8169e8b636ee30155565b60006001611a3784610d1a565b611a419190612754565b600083815260076020526040902054909150808214611a94576001600160a01b03841660009081526006602090815260408083208584528252808320548484528184208190558352600790915290208190555b5060009182526007602090815260408084208490556001600160a01b039094168352600681528383209183525290812055565b600854600090611ad990600190612754565b60008381526009602052604081205460088054939450909284908110611b0f57634e487b7160e01b600052603260045260246000fd5b906000526020600020015490508060088381548110611b3e57634e487b7160e01b600052603260045260246000fd5b6000918252602080832090910192909255828152600990915260408082208490558582528120556008805480611b8457634e487b7160e01b600052603160045260246000fd5b6001900381819060005260206000200160009055905550505050565b6000611bab83610d1a565b6001600160a01b039093166000908152600660209081526040808320868452825280832085905593825260079052919091209190915550565b828054611bf090612797565b90600052602060002090601f016020900481019282611c125760008555611c58565b82601f10611c2b57805160ff1916838001178555611c58565b82800160010185558215611c58579182015b82811115611c58578251825591602001919060010190611c3d565b50611c64929150611c68565b5090565b5b80821115611c645760008155600101611c69565b60006001600160401b0380841115611c9757611c9761282d565b604051601f8501601f191681016020018281118282101715611cbb57611cbb61282d565b604052848152915081838501861015611cd357600080fd5b8484602083013760006020868301015250509392505050565b600060208284031215611cfd578081fd5b813561110381612843565b60008060408385031215611d1a578081fd5b8235611d2581612843565b91506020830135611d3581612843565b809150509250929050565b600080600060608486031215611d54578081fd5b8335611d5f81612843565b92506020840135611d6f81612843565b929592945050506040919091013590565b60008060008060808587031215611d95578081fd5b8435611da081612843565b93506020850135611db081612843565b92506040850135915060608501356001600160401b03811115611dd1578182fd5b8501601f81018713611de1578182fd5b611df087823560208401611c7d565b91505092959194509250565b60008060408385031215611e0e578182fd5b8235611e1981612843565b915060208301358015158114611d35578182fd5b60008060408385031215611e3f578182fd5b8235611e4a81612843565b946020939093013593505050565b600060208284031215611e69578081fd5b813561110381612858565b600060208284031215611e85578081fd5b815161110381612858565b600060208284031215611ea1578081fd5b81356001600160401b03811115611eb6578182fd5b8201601f81018413611ec6578182fd5b61136884823560208401611c7d565b600060208284031215611ee6578081fd5b5035919050565b60008151808452611f0581602086016020860161276b565b601f01601f19169290920160200192915050565b600084516020611f2c8285838a0161276b565b855191840191611f3f8184848a0161276b565b8554920191839060028104600180831680611f5b57607f831692505b858310811415611f7957634e487b7160e01b88526022600452602488fd5b808015611f8d5760018114611f9e57611fca565b60ff19851688528388019550611fca565b611fa78b6126fd565b895b85811015611fc25781548a820152908401908801611fa9565b505083880195505b50939b9a5050505050505050505050565b6001600160a01b0391909116815260200190565b6001600160a01b038581168252841660208201526040810183905260806060820181905260009061202290830184611eed565b9695505050505050565b6001600160a01b03929092168252602082015260400190565b6020808252825182820181905260009190848201906040850190845b8181101561207d57835183529284019291840191600101612061565b50909695505050505050565b901515815260200190565b6000602082526111036020830184611eed565b60208082526021908201527f5265616368656420746f20746865206d617820616d6f756e74206f66206d696e6040820152601d60fa1b606082015260800190565b60208082526014908201527314185d5cd8589b194e881b9bdd081c185d5cd95960621b604082015260600190565b6020808252602b908201527f455243373231456e756d657261626c653a206f776e657220696e646578206f7560408201526a74206f6620626f756e647360a81b606082015260800190565b60208082526032908201527f4552433732313a207472616e7366657220746f206e6f6e20455243373231526560408201527131b2b4bb32b91034b6b83632b6b2b73a32b960711b606082015260800190565b60208082526026908201527f4f776e61626c653a206e6577206f776e657220697320746865207a65726f206160408201526564647265737360d01b606082015260800190565b6020808252601c908201527b115490cdcc8c4e881d1bdad95b88185b1c9958591e481b5a5b9d195960221b604082015260600190565b602080825260199082015278125b9cdd59999a58da595b9d08115512081c9958d95a5d9959603a1b604082015260600190565b60208082526024908201527f4552433732313a207472616e7366657220746f20746865207a65726f206164646040820152637265737360e01b606082015260800190565b60208082526019908201527822a9219b99189d1030b8383937bb32903a379031b0b63632b960391b604082015260600190565b6020808252600c908201526b5a65726f206164647265737360a01b604082015260600190565b6020808252602c908201527f4552433732313a206f70657261746f7220717565727920666f72206e6f6e657860408201526b34b9ba32b73a103a37b5b2b760a11b606082015260800190565b60208082526010908201526f14185d5cd8589b194e881c185d5cd95960821b604082015260600190565b60208082526038908201527f4552433732313a20617070726f76652063616c6c6572206973206e6f74206f776040820152771b995c881b9bdc88185c1c1c9bdd995908199bdc88185b1b60421b606082015260800190565b6020808252602a908201527f4552433732313a2062616c616e636520717565727920666f7220746865207a65604082015269726f206164647265737360b01b606082015260800190565b60208082526029908201527f4552433732313a206f776e657220717565727920666f72206e6f6e657869737460408201526832b73a103a37b5b2b760b91b606082015260800190565b6020808252818101527f4552433732313a206d696e7420746f20746865207a65726f2061646472657373604082015260600190565b60208082526031908201527f45524337323155524953746f726167653a2055524920717565727920666f72206040820152703737b732bc34b9ba32b73a103a37b5b2b760791b606082015260800190565b6020808252602c908201527f4552433732313a20617070726f76656420717565727920666f72206e6f6e657860408201526b34b9ba32b73a103a37b5b2b760a11b606082015260800190565b6020808252818101527f4f776e61626c653a2063616c6c6572206973206e6f7420746865206f776e6572604082015260600190565b60208082526029908201527f4552433732313a207472616e73666572206f6620746f6b656e2074686174206960408201526839903737ba1037bbb760b91b606082015260800190565b60208082526016908201527543616e277420627579206f766572203130204e46547360501b604082015260600190565b60208082526021908201527f4552433732313a20617070726f76616c20746f2063757272656e74206f776e656040820152603960f91b606082015260800190565b6020808252601c908201527b53686f756c642062652074686520706f7369746976652076616c756560201b604082015260600190565b60208082526031908201527f4552433732313a207472616e736665722063616c6c6572206973206e6f74206f6040820152701ddb995c881b9bdc88185c1c1c9bdd9959607a1b606082015260800190565b6020808252602c908201527f455243373231456e756d657261626c653a20676c6f62616c20696e646578206f60408201526b7574206f6620626f756e647360a01b606082015260800190565b90815260200190565b60009081526020902090565b6000821982111561271c5761271c612801565b500190565b60008261273057612730612817565b500490565b600081600019048311821515161561274f5761274f612801565b500290565b60008282101561276657612766612801565b500390565b60005b8381101561278657818101518382015260200161276e565b83811115610fea5750506000910152565b6002810460018216806127ab57607f821691505b602082108114156127cc57634e487b7160e01b600052602260045260246000fd5b50919050565b60006000198214156127e6576127e6612801565b5060010190565b6000826127fc576127fc612817565b500690565b634e487b7160e01b600052601160045260246000fd5b634e487b7160e01b600052601260045260246000fd5b634e487b7160e01b600052604160045260246000fd5b6001600160a01b03811681146111ea57600080fd5b6001600160e01b0319811681146111ea57600080fdfeddf252ad1be2c89b69c2b068fc378daa952ba7f163c4a11628f55a4df523b3efa2646970667358221220f707b252bb81057be5c093038b371609dc826c979c014444a2a119b3335de9fd64736f6c63430008000033",
  "linkReferences": {},
  "deployedLinkReferences": {}
}