{
  "_format": "hh-sol-artifact-1",
  "contractName": "ETC",
  "sourceName": "contracts/ETC.sol",
  "abi": [
    {
      "inputs": [
        {
          "internalType": "address payable",
          "name": "_ownerWallet",
          "type": "address"
        }
      ],
      "stateMutability": "nonpayable",
      "type": "constructor"
    },
    {
      "anonymous": false,
      "inputs": [
        {
          "indexed": true,
          "internalType": "address",
          "name": "owner",
          "type": "address"
        },
        {
          "indexed": true,
          "internalType": "address",
          "name": "approved",
          "type": "address"
        },
        {
          "indexed": true,
          "internalType": "uint256",
          "name": "tokenId",
          "type": "uint256"
        }
      ],
      "name": "Approval",
      "type": "event"
    },
    {
      "anonymous": false,
      "inputs": [
        {
          "indexed": true,
          "internalType": "address",
          "name": "owner",
          "type": "address"
        },
        {
          "indexed": true,
          "internalType": "address",
          "name": "operator",
          "type": "address"
        },
        {
          "indexed": false,
          "internalType": "bool",
          "name": "approved",
          "type": "bool"
        }
      ],
      "name": "ApprovalForAll",
      "type": "event"
    },
    {
      "anonymous": false,
      "inputs": [
        {
          "indexed": false,
          "internalType": "address",
          "name": "_to",
          "type": "address"
        },
        {
          "indexed": false,
          "internalType": "uint256",
          "name": "_amount",
          "type": "uint256"
        }
      ],
      "name": "BatchMintFinished",
      "type": "event"
    },
    {
      "anonymous": false,
      "inputs": [
        {
          "indexed": true,
          "internalType": "address",
          "name": "previousOwner",
          "type": "address"
        },
        {
          "indexed": true,
          "internalType": "address",
          "name": "newOwner",
          "type": "address"
        }
      ],
      "name": "OwnershipTransferred",
      "type": "event"
    },
    {
      "anonymous": false,
      "inputs": [
        {
          "indexed": false,
          "internalType": "address",
          "name": "account",
          "type": "address"
        }
      ],
      "name": "Paused",
      "type": "event"
    },
    {
      "anonymous": false,
      "inputs": [
        {
          "indexed": false,
          "internalType": "address",
          "name": "_to",
          "type": "address"
        },
        {
          "indexed": false,
          "internalType": "uint256",
          "name": "_amount",
          "type": "uint256"
        }
      ],
      "name": "PresaleNFTsFinished",
      "type": "event"
    },
    {
      "anonymous": false,
      "inputs": [
        {
          "indexed": true,
          "internalType": "address",
          "name": "from",
          "type": "address"
        },
        {
          "indexed": true,
          "internalType": "address",
          "name": "to",
          "type": "address"
        },
        {
          "indexed": true,
          "internalType": "uint256",
          "name": "tokenId",
          "type": "uint256"
        }
      ],
      "name": "Transfer",
      "type": "event"
    },
    {
      "anonymous": false,
      "inputs": [
        {
          "indexed": false,
          "internalType": "address",
          "name": "account",
          "type": "address"
        }
      ],
      "name": "Unpaused",
      "type": "event"
    },
    {
      "inputs": [
        {
          "internalType": "address",
          "name": "_to",
          "type": "address"
        },
        {
          "internalType": "uint256",
          "name": "_amount",
          "type": "uint256"
        }
      ],
      "name": "BatchMint",
      "outputs": [],
      "stateMutability": "nonpayable",
      "type": "function"
    },
    {
      "inputs": [
        {
          "internalType": "address",
          "name": "_to",
          "type": "address"
        },
        {
          "internalType": "uint256",
          "name": "_amount",
          "type": "uint256"
        }
      ],
      "name": "PresaleNFTs",
      "outputs": [],
      "stateMutability": "payable",
      "type": "function"
    },
    {
      "inputs": [
        {
          "internalType": "address",
          "name": "to",
          "type": "address"
        },
        {
          "internalType": "uint256",
          "name": "tokenId",
          "type": "uint256"
        }
      ],
      "name": "approve",
      "outputs": [],
      "stateMutability": "nonpayable",
      "type": "function"
    },
    {
      "inputs": [
        {
          "internalType": "address",
          "name": "owner",
          "type": "address"
        }
      ],
      "name": "balanceOf",
      "outputs": [
        {
          "internalType": "uint256",
          "name": "",
          "type": "uint256"
        }
      ],
      "stateMutability": "view",
      "type": "function"
    },
    {
      "inputs": [],
      "name": "baseExtension",
      "outputs": [
        {
          "internalType": "string",
          "name": "",
          "type": "string"
        }
      ],
      "stateMutability": "view",
      "type": "function"
    },
    {
      "inputs": [],
      "name": "getAllTokensList",
      "outputs": [
        {
          "internalType": "uint256[]",
          "name": "",
          "type": "uint256[]"
        }
      ],
      "stateMutability": "view",
      "type": "function"
    },
    {
      "inputs": [
        {
          "internalType": "uint256",
          "name": "tokenId",
          "type": "uint256"
        }
      ],
      "name": "getApproved",
      "outputs": [
        {
          "internalType": "address",
          "name": "",
          "type": "address"
        }
      ],
      "stateMutability": "view",
      "type": "function"
    },
    {
      "inputs": [],
      "name": "getLastTokenId",
      "outputs": [
        {
          "internalType": "uint256",
          "name": "",
          "type": "uint256"
        }
      ],
      "stateMutability": "view",
      "type": "function"
    },
    {
      "inputs": [],
      "name": "getPricePerNFT",
      "outputs": [
        {
          "internalType": "uint256",
          "name": "",
          "type": "uint256"
        }
      ],
      "stateMutability": "view",
      "type": "function"
    },
    {
      "inputs": [
        {
          "internalType": "address",
          "name": "_owner",
          "type": "address"
        }
      ],
      "name": "getTokensListOwnedByUser",
      "outputs": [
        {
          "internalType": "uint256[]",
          "name": "",
          "type": "uint256[]"
        }
      ],
      "stateMutability": "view",
      "type": "function"
    },
    {
      "inputs": [
        {
          "internalType": "address",
          "name": "owner",
          "type": "address"
        },
        {
          "internalType": "address",
          "name": "operator",
          "type": "address"
        }
      ],
      "name": "isApprovedForAll",
      "outputs": [
        {
          "internalType": "bool",
          "name": "",
          "type": "bool"
        }
      ],
      "stateMutability": "view",
      "type": "function"
    },
    {
      "inputs": [],
      "name": "name",
      "outputs": [
        {
          "internalType": "string",
          "name": "",
          "type": "string"
        }
      ],
      "stateMutability": "view",
      "type": "function"
    },
    {
      "inputs": [],
      "name": "nextTokenId",
      "outputs": [
        {
          "internalType": "uint256",
          "name": "",
          "type": "uint256"
        }
      ],
      "stateMutability": "view",
      "type": "function"
    },
    {
      "inputs": [],
      "name": "owner",
      "outputs": [
        {
          "internalType": "address",
          "name": "",
          "type": "address"
        }
      ],
      "stateMutability": "view",
      "type": "function"
    },
    {
      "inputs": [
        {
          "internalType": "uint256",
          "name": "tokenId",
          "type": "uint256"
        }
      ],
      "name": "ownerOf",
      "outputs": [
        {
          "internalType": "address",
          "name": "",
          "type": "address"
        }
      ],
      "stateMutability": "view",
      "type": "function"
    },
    {
      "inputs": [],
      "name": "pause",
      "outputs": [],
      "stateMutability": "nonpayable",
      "type": "function"
    },
    {
      "inputs": [],
      "name": "paused",
      "outputs": [
        {
          "internalType": "bool",
          "name": "",
          "type": "bool"
        }
      ],
      "stateMutability": "view",
      "type": "function"
    },
    {
      "inputs": [],
      "name": "renounceOwnership",
      "outputs": [],
      "stateMutability": "nonpayable",
      "type": "function"
    },
    {
      "inputs": [],
      "name": "revealed",
      "outputs": [
        {
          "internalType": "bool",
          "name": "",
          "type": "bool"
        }
      ],
      "stateMutability": "view",
      "type": "function"
    },
    {
      "inputs": [
        {
          "internalType": "address",
          "name": "from",
          "type": "address"
        },
        {
          "internalType": "address",
          "name": "to",
          "type": "address"
        },
        {
          "internalType": "uint256",
          "name": "tokenId",
          "type": "uint256"
        }
      ],
      "name": "safeTransferFrom",
      "outputs": [],
      "stateMutability": "nonpayable",
      "type": "function"
    },
    {
      "inputs": [
        {
          "internalType": "address",
          "name": "from",
          "type": "address"
        },
        {
          "internalType": "address",
          "name": "to",
          "type": "address"
        },
        {
          "internalType": "uint256",
          "name": "tokenId",
          "type": "uint256"
        },
        {
          "internalType": "bytes",
          "name": "_data",
          "type": "bytes"
        }
      ],
      "name": "safeTransferFrom",
      "outputs": [],
      "stateMutability": "nonpayable",
      "type": "function"
    },
    {
      "inputs": [
        {
          "internalType": "address",
          "name": "operator",
          "type": "address"
        },
        {
          "internalType": "bool",
          "name": "approved",
          "type": "bool"
        }
      ],
      "name": "setApprovalForAll",
      "outputs": [],
      "stateMutability": "nonpayable",
      "type": "function"
    },
    {
      "inputs": [
        {
          "internalType": "string",
          "name": "baseURI_",
          "type": "string"
        }
      ],
      "name": "setBaseURI",
      "outputs": [],
      "stateMutability": "nonpayable",
      "type": "function"
    },
    {
      "inputs": [
        {
          "internalType": "uint256",
          "name": "_newPrice",
          "type": "uint256"
        }
      ],
      "name": "setPricePerNFT",
      "outputs": [],
      "stateMutability": "nonpayable",
      "type": "function"
    },
    {
      "inputs": [
        {
          "internalType": "bytes4",
          "name": "interfaceId",
          "type": "bytes4"
        }
      ],
      "name": "supportsInterface",
      "outputs": [
        {
          "internalType": "bool",
          "name": "",
          "type": "bool"
        }
      ],
      "stateMutability": "view",
      "type": "function"
    },
    {
      "inputs": [],
      "name": "symbol",
      "outputs": [
        {
          "internalType": "string",
          "name": "",
          "type": "string"
        }
      ],
      "stateMutability": "view",
      "type": "function"
    },
    {
      "inputs": [
        {
          "internalType": "uint256",
          "name": "index",
          "type": "uint256"
        }
      ],
      "name": "tokenByIndex",
      "outputs": [
        {
          "internalType": "uint256",
          "name": "",
          "type": "uint256"
        }
      ],
      "stateMutability": "view",
      "type": "function"
    },
    {
      "inputs": [
        {
          "internalType": "address",
          "name": "owner",
          "type": "address"
        },
        {
          "internalType": "uint256",
          "name": "index",
          "type": "uint256"
        }
      ],
      "name": "tokenOfOwnerByIndex",
      "outputs": [
        {
          "internalType": "uint256",
          "name": "",
          "type": "uint256"
        }
      ],
      "stateMutability": "view",
      "type": "function"
    },
    {
      "inputs": [
        {
          "internalType": "uint256",
          "name": "tokenId",
          "type": "uint256"
        }
      ],
      "name": "tokenURI",
      "outputs": [
        {
          "internalType": "string",
          "name": "",
          "type": "string"
        }
      ],
      "stateMutability": "view",
      "type": "function"
    },
    {
      "inputs": [],
      "name": "totalSupply",
      "outputs": [
        {
          "internalType": "uint256",
          "name": "",
          "type": "uint256"
        }
      ],
      "stateMutability": "view",
      "type": "function"
    },
    {
      "inputs": [
        {
          "internalType": "address",
          "name": "from",
          "type": "address"
        },
        {
          "internalType": "address",
          "name": "to",
          "type": "address"
        },
        {
          "internalType": "uint256",
          "name": "tokenId",
          "type": "uint256"
        }
      ],
      "name": "transferFrom",
      "outputs": [],
      "stateMutability": "nonpayable",
      "type": "function"
    },
    {
      "inputs": [
        {
          "internalType": "address",
          "name": "newOwner",
          "type": "address"
        }
      ],
      "name": "transferOwnership",
      "outputs": [],
      "stateMutability": "nonpayable",
      "type": "function"
    },
    {
      "inputs": [],
      "name": "unpause",
      "outputs": [],
      "stateMutability": "nonpayable",
      "type": "function"
    }
  ],
  "bytecode": "0x60c06040526005608081905264173539b7b760d91b60a09081526200002891600e9190620001c8565b50600f805460ff1916905566d529ae9e8600006010556127106012553480156200005157600080fd5b5060405162002b1838038062002b1883398101604081905262000074916200026e565b604080518082018252601c81527f4573636f6261727320547265617375726520436f6c6c656374696f6e0000000060208083019182528351808501909452600384526245544360e81b908401528151919291620000d491600091620001c8565b508051620000ea906001906020840190620001c8565b50505062000107620001016200017260201b60201c565b62000176565b600b805460ff60a01b191690556001600160a01b038116620001465760405162461bcd60e51b81526004016200013d906200029e565b60405180910390fd5b600f80546001600160a01b0390921661010002610100600160a81b031990921691909117905562000312565b3390565b600b80546001600160a01b038381166001600160a01b0319831681179093556040519116919082907f8be0079c531659141344cd1fd0a4f28419497f9722a3daafe3b4186f6b6457e090600090a35050565b828054620001d690620002d5565b90600052602060002090601f016020900481019282620001fa576000855562000245565b82601f106200021557805160ff191683800117855562000245565b8280016001018555821562000245579182015b828111156200024557825182559160200191906001019062000228565b506200025392915062000257565b5090565b5b8082111562000253576000815560010162000258565b60006020828403121562000280578081fd5b81516001600160a01b038116811462000297578182fd5b9392505050565b60208082526013908201527f7a65726f2077616c6c6574206164647265737300000000000000000000000000604082015260600190565b600281046001821680620002ea57607f821691505b602082108114156200030c57634e487b7160e01b600052602260045260246000fd5b50919050565b6127f680620003226000396000f3fe60806040526004361061017e5760003560e01c806301ffc9a71461018357806306fdde03146101b9578063081812fc146101db578063095ea7b3146102085780630e46e94d1461022a57806318160ddd1461023d57806323b872dd1461025f5780632f745c591461027f5780633f4ba83a1461029f57806342842e0e146102b45780634b6dcabd146102d45780634cd0943b146102f45780634f6ccce714610321578063518302271461034157806355f804b3146103565780635c975abb146103765780636352211e1461038b57806370a08231146103ab578063715018a6146103cb57806375794a3c146103e057806383c4c00d146103f55780638456cb591461040a5780638da5cb5b1461041f57806395d89b4114610434578063988bc5c214610449578063a22cb4651461045e578063b88d4fde1461047e578063c66828621461049e578063c733b171146104b3578063c87b56dd146104c8578063cc9f0194146104e8578063e985e9c514610508578063f2fde38b14610528575b600080fd5b34801561018f57600080fd5b506101a361019e366004611d9f565b610548565b6040516101b09190611fd0565b60405180910390f35b3480156101c557600080fd5b506101ce61055b565b6040516101b09190611fdb565b3480156101e757600080fd5b506101fb6101f6366004611e1c565b6105ed565b6040516101b09190611f22565b34801561021457600080fd5b50610228610223366004611d76565b610639565b005b610228610238366004611d76565b6106d1565b34801561024957600080fd5b5061025261088a565b6040516101b0919061263b565b34801561026b57600080fd5b5061022861027a366004611c89565b610890565b34801561028b57600080fd5b5061025261029a366004611d76565b6108c8565b3480156102ab57600080fd5b5061022861091a565b3480156102c057600080fd5b506102286102cf366004611c89565b610963565b3480156102e057600080fd5b506102286102ef366004611d76565b61097e565b34801561030057600080fd5b5061031461030f366004611c3d565b610a96565b6040516101b09190611f8c565b34801561032d57600080fd5b5061025261033c366004611e1c565b610b55565b34801561034d57600080fd5b506101a3610bb0565b34801561036257600080fd5b50610228610371366004611dd7565b610bb9565b34801561038257600080fd5b506101a3610c0f565b34801561039757600080fd5b506101fb6103a6366004611e1c565b610c1f565b3480156103b757600080fd5b506102526103c6366004611c3d565b610c54565b3480156103d757600080fd5b50610228610c98565b3480156103ec57600080fd5b50610252610ce1565b34801561040157600080fd5b50610252610cf7565b34801561041657600080fd5b50610228610cfd565b34801561042b57600080fd5b506101fb610d44565b34801561044057600080fd5b506101ce610d53565b34801561045557600080fd5b50610314610d62565b34801561046a57600080fd5b50610228610479366004611d3c565b610e1d565b34801561048a57600080fd5b50610228610499366004611cc4565b610eeb565b3480156104aa57600080fd5b506101ce610f2a565b3480156104bf57600080fd5b50610252610fb8565b3480156104d457600080fd5b506101ce6104e3366004611e1c565b610fbe565b3480156104f457600080fd5b50610228610503366004611e1c565b611044565b34801561051457600080fd5b506101a3610523366004611c57565b611088565b34801561053457600080fd5b50610228610543366004611c3d565b6110b6565b600061055382611127565b90505b919050565b60606000805461056a906126de565b80601f0160208091040260200160405190810160405280929190818152602001828054610596906126de565b80156105e35780601f106105b8576101008083540402835291602001916105e3565b820191906000526020600020905b8154815290600101906020018083116105c657829003601f168201915b5050505050905090565b60006105f88261114c565b61061d5760405162461bcd60e51b81526004016106149061242d565b60405180910390fd5b506000908152600460205260409020546001600160a01b031690565b600061064482610c1f565b9050806001600160a01b0316836001600160a01b031614156106785760405162461bcd60e51b815260040161061490612527565b806001600160a01b031661068a611169565b6001600160a01b031614806106a657506106a681610523611169565b6106c25760405162461bcd60e51b8152600401610614906122bc565b6106cc838361116d565b505050565b6106d9610c0f565b156106f65760405162461bcd60e51b815260040161061490612292565b600081116107165760405162461bcd60e51b815260040161061490612568565b601254816011546107279190612650565b11156107455760405162461bcd60e51b815260040161061490611fee565b600a8111156107665760405162461bcd60e51b8152600401610614906124f7565b6001600160a01b03821661078c5760405162461bcd60e51b815260040161061490612220565b60008160105461079c919061267c565b9050803410156107be5760405162461bcd60e51b815260040161061490612176565b600f546040516001600160a01b0361010090920491909116903480156108fc02916000818181858888f193505050501580156107fe573d6000803e3d6000fd5b5060005b8281101561084b576000610814610ce1565b90506108308582604051806020016040528060008152506111db565b61083861120e565b508061084381612719565b915050610802565b507f534ce981a3e4ab11c543920fe3818d892a4e1fcd00d44859c2d9677d18ea17a0838360405161087d929190611f73565b60405180910390a1505050565b60085490565b6108a161089b611169565b82611225565b6108bd5760405162461bcd60e51b81526004016106149061259e565b6106cc8383836112aa565b60006108d383610c54565b82106108f15760405162461bcd60e51b81526004016106149061205d565b506001600160a01b03919091166000908152600660209081526040808320938352929052205490565b610922611169565b6001600160a01b0316610933610d44565b6001600160a01b0316146109595760405162461bcd60e51b815260040161061490612479565b6109616113c5565b565b6106cc83838360405180602001604052806000815250610eeb565b610986611169565b6001600160a01b0316610997610d44565b6001600160a01b0316146109bd5760405162461bcd60e51b815260040161061490612479565b601254816011546109ce9190612650565b11156109ec5760405162461bcd60e51b815260040161061490611fee565b60008111610a0c5760405162461bcd60e51b815260040161061490612568565b60005b81811015610a58576000610a21610ce1565b9050610a3d8482604051806020016040528060008152506111db565b610a4561120e565b5080610a5081612719565b915050610a0f565b507fcb18d05a153858255021777f6affd00f88a682d88708c2e5d6ca4421f71b2a208282604051610a8a929190611f73565b60405180910390a15050565b60606000610aa383610c54565b6001600160401b03811115610ac857634e487b7160e01b600052604160045260246000fd5b604051908082528060200260200182016040528015610af1578160200160208202803683370190505b50905060005b610b0084610c54565b811015610b4e57610b1184826108c8565b828281518110610b3157634e487b7160e01b600052603260045260246000fd5b602090810291909101015280610b4681612719565b915050610af7565b5092915050565b6000610b5f61088a565b8210610b7d5760405162461bcd60e51b8152600401610614906125ef565b60088281548110610b9e57634e487b7160e01b600052603260045260246000fd5b90600052602060002001549050919050565b600f5460ff1681565b610bc1611169565b6001600160a01b0316610bd2610d44565b6001600160a01b031614610bf85760405162461bcd60e51b815260040161061490612479565b8051610c0b90600c906020840190611b1e565b5050565b600b54600160a01b900460ff1690565b6000818152600260205260408120546001600160a01b0316806105535760405162461bcd60e51b81526004016106149061235e565b60006001600160a01b038216610c7c5760405162461bcd60e51b815260040161061490612314565b506001600160a01b031660009081526003602052604090205490565b610ca0611169565b6001600160a01b0316610cb1610d44565b6001600160a01b031614610cd75760405162461bcd60e51b815260040161061490612479565b6109616000611436565b60006011546001610cf29190612650565b905090565b60115490565b610d05611169565b6001600160a01b0316610d16610d44565b6001600160a01b031614610d3c5760405162461bcd60e51b815260040161061490612479565b610961611488565b600b546001600160a01b031690565b60606001805461056a906126de565b60606000610d6e61088a565b6001600160401b03811115610d9357634e487b7160e01b600052604160045260246000fd5b604051908082528060200260200182016040528015610dbc578160200160208202803683370190505b50905060005b610dca61088a565b811015610e1757610dda81610b55565b828281518110610dfa57634e487b7160e01b600052603260045260246000fd5b602090810291909101015280610e0f81612719565b915050610dc2565b50905090565b610e25611169565b6001600160a01b0316826001600160a01b03161415610e565760405162461bcd60e51b8152600401610614906121ed565b8060056000610e63611169565b6001600160a01b03908116825260208083019390935260409182016000908120918716808252919093529120805460ff191692151592909217909155610ea7611169565b6001600160a01b03167f17307eab39ab6107e8899845ad3d59bd9653f200f220920489ca2b5937696c3183604051610edf9190611fd0565b60405180910390a35050565b610efc610ef6611169565b83611225565b610f185760405162461bcd60e51b81526004016106149061259e565b610f24848484846114e9565b50505050565b600e8054610f37906126de565b80601f0160208091040260200160405190810160405280929190818152602001828054610f63906126de565b8015610fb05780601f10610f8557610100808354040283529160200191610fb0565b820191906000526020600020905b815481529060010190602001808311610f9357829003601f168201915b505050505081565b60105490565b6060610fc98261114c565b610fe55760405162461bcd60e51b8152600401610614906123dc565b6060610fef61151c565b9050600081511161100f576040518060200160405280600081525061103d565b806110198461152b565b600e60405160200161102d93929190611e60565b6040516020818303038152906040525b9392505050565b61104c611169565b6001600160a01b031661105d610d44565b6001600160a01b0316146110835760405162461bcd60e51b815260040161061490612479565b601055565b6001600160a01b03918216600090815260056020908152604080832093909416825291909152205460ff1690565b6110be611169565b6001600160a01b03166110cf610d44565b6001600160a01b0316146110f55760405162461bcd60e51b815260040161061490612479565b6001600160a01b03811661111b5760405162461bcd60e51b8152600401610614906120fa565b61112481611436565b50565b60006001600160e01b0319821663780e9d6360e01b1480610553575061055382611645565b6000908152600260205260409020546001600160a01b0316151590565b3390565b600081815260046020526040902080546001600160a01b0319166001600160a01b03841690811790915581906111a282610c1f565b6001600160a01b03167f8c5be1e5ebec7d5bd14f71427d1e84f3dd0314c0f7b2291e5b200ac8c7c3b92560405160405180910390a45050565b6111e58383611685565b6111f26000848484611752565b6106cc5760405162461bcd60e51b8152600401610614906120a8565b6011805490600061121e83612719565b9190505550565b60006112308261114c565b61124c5760405162461bcd60e51b815260040161061490612246565b600061125783610c1f565b9050806001600160a01b0316846001600160a01b031614806112925750836001600160a01b0316611287846105ed565b6001600160a01b0316145b806112a257506112a28185611088565b949350505050565b826001600160a01b03166112bd82610c1f565b6001600160a01b0316146112e35760405162461bcd60e51b8152600401610614906124ae565b6001600160a01b0382166113095760405162461bcd60e51b8152600401610614906121a9565b61131483838361186d565b61131f60008261116d565b6001600160a01b038316600090815260036020526040812080546001929061134890849061269b565b90915550506001600160a01b0382166000908152600360205260408120805460019290611376908490612650565b909155505060008181526002602052604080822080546001600160a01b0319166001600160a01b0386811691821790925591518493918716916000805160206127a183398151915291a4505050565b6113cd610c0f565b6113e95760405162461bcd60e51b81526004016106149061202f565b600b805460ff60a01b191690557f5db9ee0a495bf2e6ff9c91a7834c1ba4fdd244a5e8aa4e537bd38aeae4b073aa61141f611169565b60405161142c9190611f22565b60405180910390a1565b600b80546001600160a01b038381166001600160a01b0319831681179093556040519116919082907f8be0079c531659141344cd1fd0a4f28419497f9722a3daafe3b4186f6b6457e090600090a35050565b611490610c0f565b156114ad5760405162461bcd60e51b815260040161061490612292565b600b805460ff60a01b1916600160a01b1790557f62e78cea01bee320cd4e420270b5ea74000d11b0c9f74754ebdbfc544b05a25861141f611169565b6114f48484846112aa565b61150084848484611752565b610f245760405162461bcd60e51b8152600401610614906120a8565b6060600c805461056a906126de565b60608161155057506040805180820190915260018152600360fc1b6020820152610556565b8160005b811561157a578061156481612719565b91506115739050600a83612668565b9150611554565b6000816001600160401b038111156115a257634e487b7160e01b600052604160045260246000fd5b6040519080825280601f01601f1916602001820160405280156115cc576020820181803683370190505b5090505b84156112a2576115e160018361269b565b91506115ee600a86612734565b6115f9906030612650565b60f81b81838151811061161c57634e487b7160e01b600052603260045260246000fd5b60200101906001600160f81b031916908160001a90535061163e600a86612668565b94506115d0565b60006001600160e01b031982166380ac58cd60e01b148061167657506001600160e01b03198216635b5e139f60e01b145b80610553575061055382611878565b6001600160a01b0382166116ab5760405162461bcd60e51b8152600401610614906123a7565b6116b48161114c565b156116d15760405162461bcd60e51b815260040161061490612140565b6116dd6000838361186d565b6001600160a01b0382166000908152600360205260408120805460019290611706908490612650565b909155505060008181526002602052604080822080546001600160a01b0319166001600160a01b03861690811790915590518392906000805160206127a1833981519152908290a45050565b6000611766846001600160a01b0316611891565b1561186257836001600160a01b031663150b7a02611782611169565b8786866040518563ffffffff1660e01b81526004016117a49493929190611f36565b602060405180830381600087803b1580156117be57600080fd5b505af19250505080156117ee575060408051601f3d908101601f191682019092526117eb91810190611dbb565b60015b611848573d80801561181c576040519150601f19603f3d011682016040523d82523d6000602084013e611821565b606091505b5080516118405760405162461bcd60e51b8152600401610614906120a8565b805181602001fd5b6001600160e01b031916630a85bd0160e11b1490506112a2565b506001949350505050565b6106cc838383611897565b6001600160e01b031981166301ffc9a760e01b14919050565b3b151590565b6118a28383836106cc565b6001600160a01b0383166118be576118b981611920565b6118e1565b816001600160a01b0316836001600160a01b0316146118e1576118e18382611964565b6001600160a01b0382166118fd576118f881611a01565b6106cc565b826001600160a01b0316826001600160a01b0316146106cc576106cc8282611ada565b600880546000838152600960205260408120829055600182018355919091527ff3f7a9fe364faab93b216da50a3214154f22a0a2b415b23a84c8169e8b636ee30155565b6000600161197184610c54565b61197b919061269b565b6000838152600760205260409020549091508082146119ce576001600160a01b03841660009081526006602090815260408083208584528252808320548484528184208190558352600790915290208190555b5060009182526007602090815260408084208490556001600160a01b039094168352600681528383209183525290812055565b600854600090611a139060019061269b565b60008381526009602052604081205460088054939450909284908110611a4957634e487b7160e01b600052603260045260246000fd5b906000526020600020015490508060088381548110611a7857634e487b7160e01b600052603260045260246000fd5b6000918252602080832090910192909255828152600990915260408082208490558582528120556008805480611abe57634e487b7160e01b600052603160045260246000fd5b6001900381819060005260206000200160009055905550505050565b6000611ae583610c54565b6001600160a01b039093166000908152600660209081526040808320868452825280832085905593825260079052919091209190915550565b828054611b2a906126de565b90600052602060002090601f016020900481019282611b4c5760008555611b92565b82601f10611b6557805160ff1916838001178555611b92565b82800160010185558215611b92579182015b82811115611b92578251825591602001919060010190611b77565b50611b9e929150611ba2565b5090565b5b80821115611b9e5760008155600101611ba3565b60006001600160401b0380841115611bd157611bd1612774565b604051601f8501601f191681016020018281118282101715611bf557611bf5612774565b604052848152915081838501861015611c0d57600080fd5b8484602083013760006020868301015250509392505050565b80356001600160a01b038116811461055657600080fd5b600060208284031215611c4e578081fd5b61103d82611c26565b60008060408385031215611c69578081fd5b611c7283611c26565b9150611c8060208401611c26565b90509250929050565b600080600060608486031215611c9d578081fd5b611ca684611c26565b9250611cb460208501611c26565b9150604084013590509250925092565b60008060008060808587031215611cd9578081fd5b611ce285611c26565b9350611cf060208601611c26565b92506040850135915060608501356001600160401b03811115611d11578182fd5b8501601f81018713611d21578182fd5b611d3087823560208401611bb7565b91505092959194509250565b60008060408385031215611d4e578182fd5b611d5783611c26565b915060208301358015158114611d6b578182fd5b809150509250929050565b60008060408385031215611d88578182fd5b611d9183611c26565b946020939093013593505050565b600060208284031215611db0578081fd5b813561103d8161278a565b600060208284031215611dcc578081fd5b815161103d8161278a565b600060208284031215611de8578081fd5b81356001600160401b03811115611dfd578182fd5b8201601f81018413611e0d578182fd5b6112a284823560208401611bb7565b600060208284031215611e2d578081fd5b5035919050565b60008151808452611e4c8160208601602086016126b2565b601f01601f19169290920160200192915050565b600084516020611e738285838a016126b2565b855191840191611e868184848a016126b2565b8554920191839060028104600180831680611ea257607f831692505b858310811415611ec057634e487b7160e01b88526022600452602488fd5b808015611ed45760018114611ee557611f11565b60ff19851688528388019550611f11565b611eee8b612644565b895b85811015611f095781548a820152908401908801611ef0565b505083880195505b50939b9a5050505050505050505050565b6001600160a01b0391909116815260200190565b6001600160a01b0385811682528416602082015260408101839052608060608201819052600090611f6990830184611e34565b9695505050505050565b6001600160a01b03929092168252602082015260400190565b6020808252825182820181905260009190848201906040850190845b81811015611fc457835183529284019291840191600101611fa8565b50909695505050505050565b901515815260200190565b60006020825261103d6020830184611e34565b60208082526021908201527f5265616368656420746f20746865206d617820616d6f756e74206f66206d696e6040820152601d60fa1b606082015260800190565b60208082526014908201527314185d5cd8589b194e881b9bdd081c185d5cd95960621b604082015260600190565b6020808252602b908201527f455243373231456e756d657261626c653a206f776e657220696e646578206f7560408201526a74206f6620626f756e647360a81b606082015260800190565b60208082526032908201527f4552433732313a207472616e7366657220746f206e6f6e20455243373231526560408201527131b2b4bb32b91034b6b83632b6b2b73a32b960711b606082015260800190565b60208082526026908201527f4f776e61626c653a206e6577206f776e657220697320746865207a65726f206160408201526564647265737360d01b606082015260800190565b6020808252601c908201527b115490cdcc8c4e881d1bdad95b88185b1c9958591e481b5a5b9d195960221b604082015260600190565b602080825260199082015278125b9cdd59999a58da595b9d08115512081c9958d95a5d9959603a1b604082015260600190565b60208082526024908201527f4552433732313a207472616e7366657220746f20746865207a65726f206164646040820152637265737360e01b606082015260800190565b60208082526019908201527822a9219b99189d1030b8383937bb32903a379031b0b63632b960391b604082015260600190565b6020808252600c908201526b5a65726f206164647265737360a01b604082015260600190565b6020808252602c908201527f4552433732313a206f70657261746f7220717565727920666f72206e6f6e657860408201526b34b9ba32b73a103a37b5b2b760a11b606082015260800190565b60208082526010908201526f14185d5cd8589b194e881c185d5cd95960821b604082015260600190565b60208082526038908201527f4552433732313a20617070726f76652063616c6c6572206973206e6f74206f776040820152771b995c881b9bdc88185c1c1c9bdd995908199bdc88185b1b60421b606082015260800190565b6020808252602a908201527f4552433732313a2062616c616e636520717565727920666f7220746865207a65604082015269726f206164647265737360b01b606082015260800190565b60208082526029908201527f4552433732313a206f776e657220717565727920666f72206e6f6e657869737460408201526832b73a103a37b5b2b760b91b606082015260800190565b6020808252818101527f4552433732313a206d696e7420746f20746865207a65726f2061646472657373604082015260600190565b60208082526031908201527f45524337323155524953746f726167653a2055524920717565727920666f72206040820152703737b732bc34b9ba32b73a103a37b5b2b760791b606082015260800190565b6020808252602c908201527f4552433732313a20617070726f76656420717565727920666f72206e6f6e657860408201526b34b9ba32b73a103a37b5b2b760a11b606082015260800190565b6020808252818101527f4f776e61626c653a2063616c6c6572206973206e6f7420746865206f776e6572604082015260600190565b60208082526029908201527f4552433732313a207472616e73666572206f6620746f6b656e2074686174206960408201526839903737ba1037bbb760b91b606082015260800190565b60208082526016908201527543616e277420627579206f766572203230204e46547360501b604082015260600190565b60208082526021908201527f4552433732313a20617070726f76616c20746f2063757272656e74206f776e656040820152603960f91b606082015260800190565b6020808252601c908201527b53686f756c642062652074686520706f7369746976652076616c756560201b604082015260600190565b60208082526031908201527f4552433732313a207472616e736665722063616c6c6572206973206e6f74206f6040820152701ddb995c881b9bdc88185c1c1c9bdd9959607a1b606082015260800190565b6020808252602c908201527f455243373231456e756d657261626c653a20676c6f62616c20696e646578206f60408201526b7574206f6620626f756e647360a01b606082015260800190565b90815260200190565b60009081526020902090565b6000821982111561266357612663612748565b500190565b6000826126775761267761275e565b500490565b600081600019048311821515161561269657612696612748565b500290565b6000828210156126ad576126ad612748565b500390565b60005b838110156126cd5781810151838201526020016126b5565b83811115610f245750506000910152565b6002810460018216806126f257607f821691505b6020821081141561271357634e487b7160e01b600052602260045260246000fd5b50919050565b600060001982141561272d5761272d612748565b5060010190565b6000826127435761274361275e565b500690565b634e487b7160e01b600052601160045260246000fd5b634e487b7160e01b600052601260045260246000fd5b634e487b7160e01b600052604160045260246000fd5b6001600160e01b03198116811461112457600080fdfeddf252ad1be2c89b69c2b068fc378daa952ba7f163c4a11628f55a4df523b3efa2646970667358221220a9c7b6dfe5f58bb849978cdee07fbddcf6dc557cce148779e927197b6a04882964736f6c63430008000033",
  "linkReferences": {},
  "deployedLinkReferences": {}
}